{
  "contractName": "Voting",
  "abi": [
    {
      "constant": true,
      "inputs": [
        {
          "name": "",
          "type": "bytes32"
        }
      ],
      "name": "votesReceived",
      "outputs": [
        {
          "name": "",
          "type": "uint256"
        }
      ],
      "payable": false,
      "stateMutability": "view",
      "type": "function"
    },
    {
      "constant": true,
      "inputs": [
        {
          "name": "",
          "type": "uint256"
        }
      ],
      "name": "candidateList",
      "outputs": [
        {
          "name": "",
          "type": "bytes32"
        }
      ],
      "payable": false,
      "stateMutability": "view",
      "type": "function"
    },
    {
      "inputs": [
        {
          "name": "candidateNames",
          "type": "bytes32[]"
        }
      ],
      "payable": false,
      "stateMutability": "nonpayable",
      "type": "constructor"
    },
    {
      "constant": true,
      "inputs": [
        {
          "name": "candidate",
          "type": "bytes32"
        }
      ],
      "name": "totalVotesFor",
      "outputs": [
        {
          "name": "",
          "type": "uint256"
        }
      ],
      "payable": false,
      "stateMutability": "view",
      "type": "function"
    },
    {
      "constant": false,
      "inputs": [
        {
          "name": "candidate",
          "type": "bytes32"
        }
      ],
      "name": "voteForCandidate",
      "outputs": [],
      "payable": true,
      "stateMutability": "payable",
      "type": "function"
    },
    {
      "constant": true,
      "inputs": [
        {
          "name": "candidate",
          "type": "bytes32"
        }
      ],
      "name": "validCandidate",
      "outputs": [
        {
          "name": "",
          "type": "bool"
        }
      ],
      "payable": false,
      "stateMutability": "view",
      "type": "function"
    }
  ],
  "bytecode": "0x608060405234801561001057600080fd5b506040516104d33803806104d3833981018060405281019080805182019291905050508060029080519060200190610049929190610050565b50506100c8565b828054828255906000526020600020908101928215610092579160200282015b82811115610091578251829060001916905591602001919060010190610070565b5b50905061009f91906100a3565b5090565b6100c591905b808211156100c15760008160009055506001016100a9565b5090565b90565b6103fc806100d76000396000f30060806040526004361061006d576000357c0100000000000000000000000000000000000000000000000000000000900463ffffffff1680632f265cf714610072578063392e6678146100b75780637021939f14610100578063b13c744b14610145578063cc9ab2671461018e575b600080fd5b34801561007e57600080fd5b506100a160048036038101908080356000191690602001909291905050506101b2565b6040518082815260200191505060405180910390f35b3480156100c357600080fd5b506100e660048036038101908080356000191690602001909291905050506101ea565b604051808215151515815260200191505060405180910390f35b34801561010c57600080fd5b5061012f6004803603810190808035600019169060200190929190505050610249565b6040518082815260200191505060405180910390f35b34801561015157600080fd5b5061017060048036038101908080359060200190929190505050610261565b60405180826000191660001916815260200191505060405180910390f35b6101b06004803603810190808035600019169060200190929190505050610284565b005b60006101bd826101ea565b15156101c857600080fd5b6000808360001916600019168152602001908152602001600020549050919050565b600080600090505b60028054905081101561023e57826000191660028281548110151561021357fe5b90600052602060002001546000191614156102315760019150610243565b80806001019150506101f2565b600091505b50919050565b60006020528060005260406000206000915090505481565b60028181548110151561027057fe5b906000526020600020016000915090505481565b600061028f826101ea565b151561029a57600080fd5b600160003373ffffffffffffffffffffffffffffffffffffffff1673ffffffffffffffffffffffffffffffffffffffff16815260200190815260200160002060009054906101000a900460ff161515156102f357600080fd5b60018060003373ffffffffffffffffffffffffffffffffffffffff1673ffffffffffffffffffffffffffffffffffffffff16815260200190815260200160002060006101000a81548160ff021916908315150217905550670de0b6b3a76400003481151561035d57fe5b04905061038d816000808560001916600019168152602001908152602001600020546103af90919063ffffffff16565b6000808460001916600019168152602001908152602001600020819055505050565b60008082840190508381101515156103c657600080fd5b80915050929150505600a165627a7a72305820a325ab36a6d8558ae7b2c0524f77be00bf6d7165f2375a11c5bf8be0764f5f6d0029",
  "source": "pragma solidity ^0.4.22;\n\nimport \"./SafeMath.sol\";\n\ncontract Voting {\n  using SafeMath for uint;\n\n  mapping (bytes32 => uint ) public votesReceived;\n  mapping (address => bool) private addrRecoded;\n\n  bytes32[] public candidateList;\n\n  constructor(bytes32[] candidateNames) public {\n    candidateList = candidateNames;\n  }\n\n  function totalVotesFor(bytes32 candidate) view public returns (uint) {\n      require(validCandidate(candidate));\n      return votesReceived[candidate];\n  }\n\n  function voteForCandidate(bytes32 candidate) payable public {\n    require(validCandidate(candidate));\n    require(!addrRecoded[msg.sender]);\n    addrRecoded[msg.sender] = true;\n\n    uint m = msg.value / 1 ether;\n\n    votesReceived[candidate] = votesReceived[candidate].add(m);\n  }\n\n  function validCandidate(bytes32 candidate) view public returns (bool){\n    for (uint i = 0 ; i< candidateList.length; i++) {\n      if (candidateList[i] == candidate) {\n        return true;\n      }\n    }\n    return false;\n  }\n\n\n}\n",
  "sourcePath": "/home/sxf/文档/denglianxueyuan/Voting (modified)/contracts/Voting.sol",
  "compiler": {
    "name": "solc",
    "version": "0.4.24+commit.e67f0147.Emscripten.clang"
  },
  "schemaVersion": "2.0.1",
  "updatedAt": "2018-10-09T07:05:13.719Z"
}